:020000040800F2
:100000000008002089010008E5010008E50100085A
:10001000E5010008E5010008E50100080000000016
:10002000000000000000000000000000E5010008E2
:10003000E501000800000000E5010008E5010008F6
:10004000E5010008E5010008E5010008E5010008F8
:10005000E5010008E5010008E5010008E5010008E8
:10006000E5010008E5010008E5010008E5010008D8
:10007000E5010008E5010008E5010008E5010008C8
:10008000E5010008E5010008E5010008E5010008B8
:10009000E5010008E5010008E5010008E5010008A8
:1000A000E5010008E5010008E5010008E501000898
:1000B000E5010008E5010008E5010008E501000888
:1000C000E5010008E5010008E5010008E501000878
:1000D000E5010008E5010008E5010008E501000868
:1000E000E5010008E5010008E5010008E501000858
:1000F000E5010008E5010008E5010008E501000848
:10010000E5010008E5010008E5010008E501000837
:10011000E5010008E5010008E5010008E501000827
:10012000E5010008E5010008E5010008E501000817
:10013000E5010008E5010008E5010008E501000807
:10014000E5010008E5010008E5010008E5010008F7
:10015000E5010008E5010008E5010008E5010008E7
:10016000E5010008E5010008E5010008E5010008D7
:10017000E5010008E5010008E5010008E5010008C7
:10018000E5010008E501000880B582B000AF104B22
:100190007B60104B3B6007E03B681A1D3A607A6851
:1001A000111D796012681A603B680B4A9342F3D3C1
:1001B0000A480B494FF000028842B8BF40F8042BB0
:1001C000FADB00F013F800BF0837BD4680BD00BF62
:1001D000AC06000800000020000000200000002005
:1001E0000000002080B400AFFEE700BF80B58CB0F7
:1001F00000AF0121042000F095F807F12003184614
:1002000000F084F96023BB810123FB8100233B8341
:100210000121324800F094F90821304800F02AFA10
:100220000023FB620121042000F07CF8012108205A
:1002300000F05AF84FF480537B6002233B72002396
:10024000BB7201237B720023FB723B1D19462448BD
:1002500000F086F802220C21214800F00FF900235B
:10026000FB6218E0FB6A43F2333202FB03F37B616B
:1002700007F10C031946194800F082F90023FB62CC
:1002800002E0FB6A0133FB62FB6A164A9342F8DD27
:10029000FB6A0133FB62FB6A042BE3DD0423FB6290
:1002A00018E0FB6A43F2333202FB03F37B6107F190
:1002B0000C031946094800F063F90023FB6202E0D1
:1002C000FB6A0133FB62FB6A064A9342F8DDFB6A74
:1002D000013BFB62FB6A002BE3DAC0E70008004049
:1002E000000C02401FA1070080B483B000AF78600B
:1002F0000B46FB70FB78002B06D00949084B1A6BA4
:100300007B6813430B6306E00549054B1A6B7B685A
:10031000DB4313400B6300BF0C37BD4680BC704706
:100320000038024080B483B000AF78600B46FB70A9
:10033000FB78002B06D00949084B1A6C7B681343E5
:100340000B6406E00549054B1A6C7B68DB431340E0
:100350000B6400BF0C37BD4680BC704700380240BC
:1003600080B487B000AF7860396000237B610023E0
:100370003B610023FB6000237B6176E001227B6907
:1003800002FA03F33B613B681A683B691340FB6068
:10039000FA683B699A4265D17B681A687B695B00A1
:1003A000032101FA03F3DB431A407B681A607B6880
:1003B0001A683B681B7919467B695B0001FA03F3F5
:1003C0001A437B681A603B681B79012B03D03B689A
:1003D0001B79022B2ED17B689A687B695B00032115
:1003E00001FA03F3DB431A407B689A607B689A68E2
:1003F0003B685B7919467B695B0001FA03F31A439A
:100400007B689A607B685A687B699BB2012101FA1C
:1004100003F3DB431A407B685A607B685A683B6889
:100420009B7919467B699BB201FA03F39BB21A438D
:100430007B685A607B68DA687B699BB25B0003214A
:1004400001FA03F3DB431A407B68DA607B68DA6801
:100450003B68DB7919467B695B0001FA03F31A43B9
:100460007B68DA607B6901337B617B690F2B85D9FF
:1004700000BF1C37BD4680BC704700BF80B485B04C
:1004800000AF78600B467B8013467B700023FB60D7
:100490000023BB607A787B8803F007039B0002FA95
:1004A00003F3FB607B88DB089BB218467B88DB0884
:1004B0009BB21A467B68083253F822207B8803F0EF
:1004C00007039B000F2101FA03F3DB4302EA030158
:1004D0007B6800F1080243F822107B88DB089BB29E
:1004E0001A467B68083253F82220FB681343BB602E
:1004F0007B88DB089BB21A467B680832B96843F8F0
:10050000221000BF1437BD4680BC704780B483B052
:1005100000AF78607B684FF0FF325A607B68002242
:100520001A807B6800221A817B6800225A807B68CF
:1005300000229A7200BF0C37BD4680BC704700BFD6
:1005400080B483B000AF78600B46FB70FB78002B63
:1005500008D07B681B889BB243F001039AB27B688A
:100560001A8007E07B681B889BB223F001039AB2D4
:100570007B681A8000BF0C37BD4680BC704700BF47
:1005800080B485B000AF7860396000237B810023A0
:10059000FB810023BB817B681B8C9BB223F0010392
:1005A0009AB27B681A847B681B8CFB817B689B8872
:1005B000BB817B681B8B7B817B8923F070037B81F4
:1005C0007B8923F003037B813B681A887B89134373
:1005D0007B81FB8923F00203FB813B689A89FB89BD
:1005E0001343FB813B685A88FB891343FB817B687B
:1005F0001E4A934203D07B681D4A934223D1FB8954
:1006000023F00803FB813B68DA89FB891343FB81F4
:10061000FB8923F00403FB813B689A88FB89134321
:10062000FB81BB8923F48073BB81BB8923F40073F6
:10063000BB813B681A8ABB891343BB813B685A8ADA
:10064000BB891343BB817B68BA899A807B687A89AE
:100650001A833B689A687B685A637B68FA891A84B4
:1006600000BF1437BD4680BC704700BF000001408A
:100670000004014080B485B000AF78600B467B80F9
:100680000023FB817B681B8BFB81FB8923F0080324
:10069000FB81FA897B881343FB817B68FA891A8383
:0C06A00000BF1437BD4680BC704700BF8F
:0400000508000000EF
:00000001FF
