:020000040800F2
:100000001008002065030008C1030008C1030008B0
:10001000C1030008C1030008C1030008000000007C
:10002000000000000000000000000000C103000804
:10003000C103000800000000C1030008C10300085C
:10004000C1030008C1030008C1030008C103000880
:10005000C1030008C1030008C1030008C103000870
:10006000C1030008C1030008C1030008C103000860
:10007000C1030008C1030008C1030008C103000850
:10008000C1030008C1030008C1030008C103000840
:10009000C1030008C1030008C1030008C103000830
:1000A000C1030008C1030008C1030008C103000820
:1000B000C1030008C1030008C1030008C103000810
:1000C000C1030008C1030008C1030008C103000800
:1000D000C1030008C1030008C1030008C1030008F0
:1000E000C1030008C1030008C1030008C1030008E0
:1000F000C1030008C1030008C1030008C1030008D0
:10010000C1030008C1030008C1030008C1030008BF
:10011000C1030008C1030008C1030008C1030008AF
:10012000C1030008C1030008C1030008C10300089F
:10013000C1030008C1030008C1030008C10300088F
:10014000C1030008C1030008C1030008C10300087F
:10015000C1030008C1030008C1030008C10300086F
:10016000C1030008C1030008C1030008C10300085F
:10017000C1030008C1030008C1030008C10300084F
:10018000C1030008C103000880B58AB000AF7860E1
:10019000396000237B6200233B620023FB61002364
:1001A000BB617B681B8A9BB27B627B6A23F44053F2
:1001B0007B623B68DB881A467B6A13437B627B6AFF
:1001C0009AB27B681A827B689B899BB27B627B6A4E
:1001D00023F4B05323F00C037B623B689A883B689E
:1001E0001B8913439AB23B685B8913439BB21A463F
:1001F0007B6A13437B627B6A9AB27B689A817B68D5
:100200009B8A9BB27B627B6A23F440737B623B6870
:100210009B891A467B6A13437B627B6A9AB27B682E
:100220009A8207F10803184600F052F97B68314AB8
:10023000934203D07B68304A934202D17B693B6290
:1002400001E03B693B627B689B899BB29BB21BB21E
:10025000002B0CDA3A6A13469B0013449A001A44A6
:100260003B681B685B00B2FBF3F3FB610BE03A6A8F
:1002700013469B0013449A001A443B681B689B007A
:10028000B2FBF3F3FB61FB691C4AA2FB03235B098E
:100290001B017B627B6A1B09642202FB03F3FA6980
:1002A000D31ABB617B689B899BB29BB21BB2002BAC
:1002B0000CDABB69DB003233104AA2FB03235B0973
:1002C00003F007037A6A13437B620BE0BB691B01EF
:1002D00032330A4AA2FB03235B0903F00F037A6A55
:1002E00013437B627B6A9AB27B681A8100BF28370E
:1002F000BD4680BD00100140001401401F85EB5138
:1003000080B483B000AF78600B46FB70FB78002BA5
:1003100008D07B689B899BB243F400539AB27B68F8
:100320009A8107E07B689B899BB223F400539AB2C1
:100330007B689A8100BF0C37BD4680BC704700BF08
:1003400080B483B000AF78600B467B807B88C3F3BA
:1003500008039AB27B689A8000BF0C37BD4680BC08
:10036000704700BF80B582B000AF104B7B60104B70
:100370003B6007E03B681A1D3A607A68111D79609E
:1003800012681A603B680B4A9342F3D30A480B4940
:100390004FF000028842B8BF40F8042BFADB00F0AF
:1003A00013F800BF0837BD4680BD00BF48080008ED
:1003B000000000201000002010000020100000208D
:1003C00080B400AFFEE700BF80B586B000AF01216A
:1003D000102000F045F90121022000F023F940230C
:1003E0003B6102233B750023BB7501237B75002312
:1003F000FB7507220621344800F0DEF907F11003EF
:100400001946314800F04AF94FF416533B60002377
:10041000BB800023BB8108237B8100233B814FF4F9
:100420000053FB803B4619462848FFF7ADFE0121EB
:100430002648FFF765FF00BF244B1B889BB203F0E3
:100440004003002BF8D04B212048FFF779FF00BF75
:100450001E4B1B889BB203F04003002BF8D05221A7
:100460001A48FFF76DFF00BF184B1B889BB203F0C3
:100470004003002BF8D053211448FFF761FF00BF61
:10048000124B1B889BB203F04003002BF8D0532182
:100490000E48FFF755FF00BF0C4B1B889BB203F0C3
:1004A0004003002BF8D047210848FFF749FF00BF61
:1004B000064B1B889BB203F04003002BF8D00A21A7
:1004C0000248FFF73DFFB6E700040240001001407C
:1004D00080B489B000AF78600023BB6100237B61EA
:1004E0000023FB6102233B610023FB600223BB600E
:1004F000484B9B6803F00C03BB61BB69042B07D01E
:10050000082B09D0002B3FD17B68434A1A603FE09B
:100510007B68424A1A603BE03E4B5B6803F4800311
:100520009B0DFB603B4B5B6803F03F03BB60FB68CC
:10053000002B0DD0394ABB68B2FBF3F2354B59683A
:1005400047F6C0730B409B0903FB02F3FB610CE011
:10055000314ABB68B2FBF3F22E4B596847F6C073C1
:100560000B409B0903FB02F3FB612A4B5B6803F41E
:1005700040331B0C01335B003B61FA693B69B2FB02
:10058000F3F27B681A6003E07B68234A1A6000BFBD
:10059000204B9B6803F0F003BB61BB691B09BB6187
:1005A0001F4ABB6913441B78DBB27B617B681A6806
:1005B0007B69DA407B685A60164B9B6803F4E05312
:1005C000BB61BB699B0ABB61154ABB6913441B78BD
:1005D000DBB27B617B685A687B69DA407B689A6032
:1005E0000C4B9B6803F46043BB61BB695B0BBB6155
:1005F0000B4ABB6913441B78DBB27B617B685A688A
:100600007B69DA407B68DA6000BF2437BD4680BC76
:10061000704700BF003802400024F40040787D019C
:100620000000002080B483B000AF78600B46FB7000
:10063000FB78002B06D00949084B1A6B7B681343E3
:100640000B6306E00549054B1A6B7B68DB431340DF
:100650000B6300BF0C37BD4680BC704700380240BA
:1006600080B483B000AF78600B46FB70FB78002B42
:1006700006D00949084B5A6C7B6813434B6406E06B
:100680000549054B5A6C7B68DB4313404B6400BF44
:100690000C37BD4680BC70470038024080B487B03C
:1006A00000AF7860396000237B6100233B61002349
:1006B000FB6000237B6176E001227B6902FA03F391
:1006C0003B613B681A683B691340FB60FA683B6911
:1006D0009A4265D17B681A687B695B00032101FA45
:1006E00003F3DB431A407B681A607B681A683B6837
:1006F0001B7919467B695B0001FA03F31A437B6897
:100700001A603B681B79012B03D03B681B79022BD5
:100710002ED17B689A687B695B00032101FA03F3A1
:10072000DB431A407B689A607B689A683B685B7918
:1007300019467B695B0001FA03F31A437B689A60F0
:100740007B685A687B699BB2012101FA03F3DB43A2
:100750001A407B685A607B685A683B689B791946E7
:100760007B699BB201FA03F39BB21A437B685A6020
:100770007B68DA687B699BB25B00032101FA03F3B3
:10078000DB431A407B68DA607B68DA683B68DB79B8
:1007900019467B695B0001FA03F31A437B68DA6050
:1007A0007B6901337B617B690F2B85D900BF1C37C7
:1007B000BD4680BC704700BF80B485B000AF786094
:1007C0000B467B8013467B700023FB600023BB60DD
:1007D0007A787B8803F007039B0002FA03F3FB603F
:1007E0007B88DB089BB218467B88DB089BB21A46E5
:1007F0007B68083253F822207B8803F007039B00B4
:100800000F2101FA03F3DB4302EA03017B6800F1E5
:10081000080243F822107B88DB089BB21A467B68EB
:10082000083253F82220FB681343BB607B88DB0847
:100830009BB21A467B680832B96843F8221000BFA1
:080840001437BD4680BC70476F
:10084800000000000102030401020304060708096E
:0400000508000000EF
:00000001FF
