:020000040800F2
:10000000000800200D0200086902000869020008CB
:100010006902000869020008690200080000000087
:10002000000000000000000000000000690200085D
:100030006902000800000000690200086902000867
:1000400069020008690200086902000869020008E4
:1000500069020008690200086902000869020008D4
:1000600069020008690200086902000869020008C4
:1000700069020008690200086902000869020008B4
:1000800069020008690200086902000869020008A4
:100090006902000869020008690200086902000894
:1000A0006902000869020008690200086902000884
:1000B0006902000869020008690200086902000874
:1000C0006902000869020008690200086902000864
:1000D0006902000869020008690200086902000854
:1000E000710200086902000869020008690200083C
:1000F0006902000869020008690200086902000834
:100100006902000869020008690200086902000823
:100110006902000869020008690200086902000813
:100120006902000869020008690200086902000803
:1001300069020008690200086902000869020008F3
:1001400069020008690200086902000869020008E3
:1001500069020008690200086902000869020008D3
:1001600069020008690200086902000869020008C3
:1001700069020008690200086902000869020008B3
:10018000690200086902000890B484B000AF034619
:100190000A46FB711346BB710023FB60BB7903F079
:1001A00003039B000F2202FA03F3FB601649BB799D
:1001B0009B08DBB21846144ABB799B08DBB20233BA
:1001C00052F82320FB68DB431A40831C41F82320AC
:1001D0000D48BB799B08DBB21C460B4ABB799B08D8
:1001E000DBB2023352F82320F979BB7903F0030321
:1001F0009B0001FA03F31A43A31C40F8232000BF1D
:100200001037BD4690BC70470038014080B582B0C1
:1002100000AF104B7B60104B3B6007E03B681A1D42
:100220003A607A68111D796012681A603B680B4A5F
:100230009342F3D30A480B494FF000028842B8BFFB
:1002400040F8042BFADB00F03FF800BF0837BD464A
:1002500080BD00BF6C0600080000002000000020E8
:10026000000000200000002080B400AFFEE700BFC7
:1002700080B582B000AF00237B604FF480511048FE
:1002800000F006F900237B6002E07B6801337B60AD
:100290007B680C4A9342F8DD4FF48051084800F027
:1002A00005F900237B6002E07B6801337B607B689B
:1002B000044A9342F8DD00BF0837BD4680BD00BF49
:1002C000000C02401FA1070080B586B000AF0121DD
:1002D000082000F031F84FF480533B6100233B7558
:1002E00001237B750123FB7507F1100319461148A3
:1002F00000F040F84FF48053BB600123BB73002330
:100300003B730C237B730C210320FFF73DFF07F1A8
:100310000803184600F0D8F828233B7100237B71AE
:100320000023BB710123FB713B1D184600F03EF911
:10033000FEE700BF000C024080B483B000AF7860DD
:100340000B46FB70FB78002B06D00949084B1A6B53
:100350007B6813430B6306E00549054B1A6B7B680A
:10036000DB4313400B6300BF0C37BD4680BC7047B6
:100370000038024080B487B000AF78603960002355
:100380007B6100233B610023FB6000237B6176E0FF
:1003900001227B6902FA03F33B613B681A683B69FF
:1003A0001340FB60FA683B699A4265D17B681A6822
:1003B0007B695B00032101FA03F3DB431A407B688E
:1003C0001A607B681A683B681B7919467B695B0079
:1003D00001FA03F31A437B681A603B681B79012B0F
:1003E00003D03B681B79022B2ED17B689A687B690E
:1003F0005B00032101FA03F3DB431A407B689A6038
:100400007B689A683B685B7919467B695B0001FAF7
:1004100003F31A437B689A607B685A687B699BB2D6
:10042000012101FA03F3DB431A407B685A607B68C1
:100430005A683B689B7919467B699BB201FA03F3C2
:100440009BB21A437B685A607B68DA687B699BB20F
:100450005B00032101FA03F3DB431A407B68DA6097
:100460007B68DA683B68DB7919467B695B0001FAD7
:1004700003F31A437B68DA607B6901337B617B6934
:100480000F2B85D900BF1C37BD4680BC704700BF0D
:1004900080B483B000AF78600B467B807B687A883D
:1004A0001A8300BF0C37BD4680BC704780B483B050
:1004B00000AF78600B467B807B687A885A8300BFE8
:1004C0000C37BD4680BC704780B485B000AF786003
:1004D0000023FB60344BFB607B689B79002B4FD083
:1004E0003149314B1A687B681B68DB4313400B6052
:1004F0002D492D4B5A687B681B68DB4313404B60CA
:100500007B681B791A46FB681344FB60FB68FA683A
:1005100011687A6812680A431A602349224B9A6864
:100520007B681B68DB4313408B601F491E4BDA68F6
:100530007B681B68DB431340CB607B685B79102BC7
:100540000ED11949184B9A687B681B6813438B605E
:100550001549154BDA687B681B681343CB601DE0B7
:10056000114BFB607B685B791A46FB681344FB60A8
:10057000FB68FA6811687A6812680A431A600DE02D
:100580007B681B791A46FB681344FB60FB68FA68BA
:1005900011687A681268D2430A401A6000BF1437A3
:1005A000BD4680BC704700BF003C014080B485B0B0
:1005B00000AF78600023FB730023BB730F237B73B2
:1005C0007B68DB78002B38D0264BDB68DB4303F4F9
:1005D000E0631B0AFB73FB7BC3F10403BB737A7BF1
:1005E000FB7B42FA03F37B737B685B781A46BB7B29
:1005F00002FA03F3FB737B689A787B7B1340DAB2D1
:10060000FB7B1343FB73FB7B1B01FB73164A7B686D
:100610001B781344FA7B83F80023134A7B681B780A
:100620005B09DBB218467B681B7803F01F030121CE
:1006300001FA03F342F820300FE00B497B681B7886
:100640005B09DBB218467B681B7803F01F030122AD
:100650009A4000F1200341F8232000BF1437BD4623
:0C06600080BC704700ED00E000E100E00D
:0400000508000000EF
:00000001FF
